:100000000C9400010C941D010C941D010C9493029E
:100010000C941D010C941D010C941D010C941D01E8
:100020000C941D010C941D010C948E060C94C806B2
:100030000C941D010C941D010C941D010C941D01C8
:100040000C941D010C947F020C941D010C941D0155
:100050000C941D010C941D010C941D010C941D01A8
:100060000C941D010C941D010C941D010C941D0198
:100070000C941D010C941D010C941D010C941D0188
:100080000C941D010C941D010C941D010C941D0178
:100090000C941D010C941D010C941D010C941D0168
:1000A0000C941D010C941D010C941D0126062306C1
:1000B00020061D061A061706140611060E060B0664
:1000C000080605060206FF05FC05F905F605F30519
:1000D000F005ED05EA05E705E405E105DE05DB05CC
:1000E000D805D505D205CF05CC05C905C605C3057C
:1000F000C005BD05BA05B705B405B105AE05AB052C
:10010000A805A505A2059F059C05990596059305DB
:1001100090058D058A058705840581057E057B058B
:100120007805750572056F056C056905660505A8F6
:100130004CCDB2D44EB93836A9020C50B99186884C
:10014000083CA6AAAA2ABE000000803F00010000C9
:100150008001120002000092014300030000D5015B
:100160000401030904D9011202030904ED01060385
:10017000030904F501080001C1120180360181362E
:100180001201000202000010C0167A0400010102F0
:10019000030109024300020100C03209040000010A
:1001A00002020100052400100105240101010424BC
:1001B0000206052406000107058203100040090419
:1001C0000100020A000000070503024000000705C5
:1001D00084024000000403090412034A002E002098
:1001E000004600690065006E006500000006034DD2
:1001F000003200000008033400310030000000002D
:1002000011241FBECFEFDAE0DEBFCDBF12E0A0E0C9
:10021000B1E0E4EAF5E202C005900D92A231B10727
:10022000D9F712E0A2E1B2E001C01D92A83CB107EB
:10023000E1F70E94FB010C94D0120C940000CF92C5
:10024000DF92EF92FF920F931F93CF93DF93609112
:10025000C4027091C5028091C6029091C7020E94AB
:100260009E0D6B017C0109E112E0C0E0D0E0BE010F
:10027000882777FD8095982F0E94EC0C9B01AC019C
:100280000E94B60A2BED3FE049E450E40E94140BB3
:1002900020E030E040E252E40E940E0C0E942E1159
:1002A00020E030E040E05FE30E94140B20E030E00B
:1002B00040E05FE30E94B60A9B01AC01C701B601B2
:1002C0000E94140B0E944009F8016193719381937D
:1002D00091938F012196C832D10549F6DF91CF91D4
:1002E0001F910F91FF90EF90DF90CF90089581E0E4
:1002F00090E09093BC028093BB0210928B0010920E
:100300008A00E1E8F0E080818B7F808380818D7FAF
:10031000808380818160808380818061808380810F
:1003200088608083E0E8F0E0808182608083808163
:1003300081608083269A8081806280838081806151
:100340008083EFE6F0E08081826080837894089576
:10035000EF92FF920F931F93E0910001F091010142
:10036000808191816AE070E00E941E107B0100276D
:10037000F7FC0095102FE092C002F092C1020093AA
:10038000C2021093C30220911402332727FD309537
:10039000432F532FC801B7010E94FF0F24E630E01E
:1003A00040E050E00E9431103093BA022093B9022D
:1003B0006091C4027091C5028091C6029091C702FB
:1003C000A80197010E943110309389002093880082
:1003D0001F910F91FF90EF90089581E08093BD02EF
:1003E0006A9A72980E94A801089581E066E243E04B
:1003F0000E94630308950F931F93DF93CF9300D060
:10040000CDB7DEB784EE9CE09A8389838093120295
:100410008F5F809313028FEF809314020E94BF02BC
:100420000E94F50180E8809361001092610080E8ED
:100430009AE1A6E0B0E08093C4029093C502A09335
:10044000C602B093C7020E941F010E9477010E945A
:10045000ED018091BD02882331F0F8940E94A8013B
:1004600078941092BD028091B9029091BA02181648
:1004700019060CF041C08091BE029091BF028130FC
:10048000910539F7F8940091BB021091BC02F80174
:10049000EE0FFF1FEE0FFF1FE75EFD4F60817181C2
:1004A000828193812091C0023091C1024091C202A9
:1004B0005091C3020E94311030938B0020938A0028
:1004C0000F5F1F4F1093BC020093BB02083211054F
:1004D00069F41092BC021092BB028091B902909113
:1004E000BA0201979093BA028093B902789410925D
:1004F000BF021092BE02ADCF6A9A729AAACF1F9223
:100500000F920FB60F9211248F939F9381E090E08A
:100510009093BF028093BE029F918F910F900FBE68
:100520000F901F9018951F920F920FB60F921124E3
:100530002F933F934F935F936F937F938F939F93EB
:10054000AF93BF93EF93FF936A9A729882E192E020
:1005500063E00E94BB0381E08093BD02FF91EF91B5
:10056000BF91AF919F918F917F916F915F914F91CB
:100570003F912F910F900FBE0F901F901895589A92
:10058000599A5A9A8CE08093B800E9E6F0E08081AD
:100590008062808380818F7E8083EA9A7894089538
:1005A00084E88093BC008091BC0087FFFCCF8091E1
:1005B000BB00089584E98093BC00089520E030E0FA
:1005C0008091BC0087FD06C02F5F3F4F83E0293E2E
:1005D0003807B1F781E093E0283E390709F480E05D
:1005E00008958093BB0084E88093BC000E94DE02E3
:1005F000882321F08091B900887F089580E00895D4
:100600001F93DF93CF930F92CDB7DEB7182F84EAF5
:100610008093BC0069830E94DE026981882371F0A7
:10062000812F880F662331F08F5F0E94F10288349A
:1006300051F404C00E94F102803229F484E98093CD
:10064000BC0080E001C081E00F90CF91DF911F914D
:100650000895CF93DF93C62FD42F60E00E9400034C
:10066000882379F08C2F0E94F102882351F08D2F7E
:100670000E94F102882329F084E98093BC0081E084
:1006800001C080E0DF91CF910895CF93DF93C82F11
:10069000D62F60E00E940003882389F08D2F0E94EE
:1006A000F102882361F084E98093BC008C2F61E023
:1006B0000E940003882319F00E94D00201C080E04C
:1006C000DF91CF910895DF93CF9300D00F92CDB7F4
:1006D000DEB74B836A8389830E94BF0294EA9093BA
:1006E000BC0089816A814B819091BC0097FFFCCF4F
:1006F00090E59093BB0094E89093BC009091BC006F
:1007000097FFFCCF9091B900987F903229F484E94B
:100710008093BC0080E029C091E09093BB0094E8F6
:100720009093BC009091BC0097FFFCCF8093BB00DE
:1007300084E88093BC008091BC0087FFFCCF60936D
:10074000BB0084E88093BC008091BC0087FFFCCF95
:100750004093BB0084E88093BC008091BC0087FF7D
:10076000FCCF84E98093BC0081E00F900F900F9044
:10077000CF91DF91089524EA2093BC002091BC0022
:1007800027FFFCCF21E52093BB0024E82093BC0089
:100790002091BC0027FFFCCF2091B900287F28348E
:1007A000A9F024EC2093BC002091BC0027FFFCCFD3
:1007B0002091BB00261751F4FC0120E030E07727A0
:1007C00067FD70956150704044EC10C084E98093DF
:1007D000BC0080E008954093BC005091BC0057FFDE
:1007E000FCCF5091BB0051932F5F3F4F2617370727
:1007F00094F344E84093BC004091BC0047FFFCCF19
:100800004091BB00820F931FFC01408384E98093D9
:10081000BC0081E00895F89494EA9093BC00909114
:10082000BC0097FFFCCF90E59093BB0094E89093B9
:10083000BC009091BC0097FFFCCF9091B900987FCD
:10084000903231F484E98093BC00789480E008957C
:1008500093E09093BB0094E89093BC009091BC000F
:1008600097FFFCCF8093BB0084E88093BC0080910D
:10087000BC0087FFFCCF862F972FFC0180E090E023
:10088000552747FD509524E80AC031913093BB00AD
:100890002093BC003091BC0037FFFCCF0196841739
:1008A00095079CF384E98093BC00789481E00895D7
:1008B0008091E80080FFFCCF089581E08093D7000D
:1008C00080EA8093D80082E189BD09B400FEFDCFA3
:1008D00080E98093D8001092E000109215021092E7
:1008E00016028CE08093E2007894089580911502BE
:1008F00008959FB7F89480911502882339F083E01A
:100900008093E9008091E80085FD03C09FBF8FEFD1
:1009100008958091F1002091E80025FD03C02BE6A9
:100920002093E8009FBF08959FB7F8948091150227
:10093000882331F083E08093E9008091F20001C0C8
:1009400080E09FBF089580911502882371F08FB7D2
:10095000F89493E09093E9009BE602C09093E8003E
:100960002091E80025FDFACF8FBF089590911502E0
:100970009923D1F19FB7F89424E02093E9002091C6
:100980001802222341F02091E80025FD02C09FBFFC
:100990002BC0109218022091E400275E34E04091B1
:1009A000E80045FD12C09FBF9091E400921721F42A
:1009B00081E08093180218C0909115029923B1F03C
:1009C0009FB7F8943093E900EACF8093F1008091CB
:1009D000E80085FD03C08AE38093E80085E080930A
:1009E00017029FBF80E008958FEF08958FEF08955D
:1009F000909115029923D9F09FB7F89424E02093A1
:100A0000E9002091E80025FD03C09FBF8FEF089506
:100A10008093F1008091E80085FD03C08AE3809314
:100A2000E80085E0809317029FBF80E008958FEF74
:100A30000895CF93DC0180911502882309F41AC12F
:100A40002FB7F89484E08093E900809118028823FE
:100A500009F405C18091E80085FD02C02FBF0AC1DD
:100A600010921802FCC08091E400875E9091E8002B
:100A700095FD13C02FBF9091E400981721F481E0F9
:100A800080931802F7C090911502992309F4F2C0DF
:100A90002FB7F894C093E900E9CF8091F200E52FD9
:100AA000E81B8E2F90E06817790708F4E62F6E1B7D
:100AB0007109F0E0E134F10508F0C5C0EA5AFF4FD2
:100AC000EE0FFF1F0590F491E02D09948D91809316
:100AD000F1008D918093F1008D918093F1008D91C3
:100AE0008093F1008D918093F1008D918093F100BE
:100AF0008D918093F1008D918093F1008D91809381
:100B0000F1008D918093F1008D918093F1008D9192
:100B10008093F1008D918093F1008D918093F1008D
:100B20008D918093F1008D918093F1008D91809350
:100B3000F1008D918093F1008D918093F1008D9162
:100B40008093F1008D918093F1008D918093F1005D
:100B50008D918093F1008D918093F1008D91809320
:100B6000F1008D918093F1008D918093F1008D9132
:100B70008093F1008D918093F1008D918093F1002D
:100B80008D918093F1008D918093F1008D918093F0
:100B9000F1008D918093F1008D918093F1008D9102
:100BA0008093F1008D918093F1008D918093F100FD
:100BB0008D918093F1008D918093F1008D918093C0
:100BC000F1008D918093F1008D918093F1008D91D2
:100BD0008093F1008D918093F1008D918093F100CD
:100BE0008D918093F1008D918093F1008D91809390
:100BF000F1008D918093F1008D918093F1008D91A2
:100C00008093F1008D918093F1008D918093F1009C
:100C10008D918093F1008D918093F1008D9180935F
:100C2000F1008D918093F1008D918093F1008D9171
:100C30008093F1008D918093F1008D918093F1006C
:100C40008D918093F1008D918093F1008091E80067
:100C500085FD02C04093E8003093170204C0C4E051
:100C600050E44AE335E06115710509F0FCCE2FBF71
:100C700080E001C08FEFCF9108958FB7F8949091E5
:100C80001702992341F094E09093E9009AE390933E
:100C9000E800109217028FBF0895609102017091D1
:100CA000030180910401909105010895809106014E
:100CB0000895809107010895809108010895809119
:100CC000160208959FB7F89420911502222339F057
:100CD00022E02093E9003091E80035FD03C09FBF7A
:100CE0008FEF089531EA3093F10030E23093F10054
:100CF0001092F1001092F1001092F1001092F100A8
:100D00002093F1001092F1008093F1001092F10015
:100D10008AE38093E8009FBF80E008951F920F92BE
:100D20000FB60F9211248F939F938091E100109240
:100D3000E10083FF11C01092E90091E09093EB0075
:100D40001092EC0092E19093ED0098E09093F00007
:100D5000109215021092160282FF13C080911502A4
:100D6000882379F080911702882359F0815080936D
:100D70001702882331F484E08093E9008AE38093AA
:100D8000E8009F918F910F900FBE0F901F901895C4
:100D90001F920F920FB60F921124EF92FF920F93B2
:100DA0001F932F933F934F935F936F937F938F93F3
:100DB0009F93AF93BF93EF93FF93DF93CF930F92E4
:100DC000CDB7DEB71092E9008091E80083FF2DC116
:100DD0002091F1003091F100E090F100FF2440916A
:100DE000F100942F80E0E82AF92A0091F10010E048
:100DF0004091F100942F80E0082B192B6091F100B5
:100E0000A091F10082EF8093E800363009F059C0DC
:100E100083E591E09C0125503040FC0137974591D6
:100E200054914E155F05F9F4F9014591549140171D
:100E30005107C9F42E5F3F4FF901859194912E5FC0
:100E40003F4FF9012491462F50E07A2F60E0462B66
:100E5000572B4F3F510519F010F04FEF50E042175C
:100E600050F4242F08C00796295F3F4FF1E08D37DB
:100E70009F0799F6DAC0AEEF4091E80050E0BA0162
:100E80006570707061157105B9F342FDD1C0322FE4
:100E9000213108F030E1AC01632F07C0FA014F5F48
:100EA0005F4FE491E093F10061506623B9F7830F3F
:100EB000911D231BA093E8002223F1F63031E1F2CB
:100EC000B7C0353051F48EEF8093E8000E9458048B
:100ED0008E2D80688093E300ABC0393051F522231A
:100EE00009F0A3C0E09215021092160210921702A8
:100EF0008EEF8093E80041E086E791E04093E900BF
:100F0000FC010196E491E093EB00EE2369F09C0173
:100F10002F5F3F4FFC0184918093EC00C901019643
:100F2000F90124912093ED004F5F453039F78EE1B0
:100F300077C0383051F4203809F077C00E94580447
:100F4000809115028093F10048C0313279F4213A42
:100F500009F06BC00E945804E2E0F1E081918093B7
:100F6000F10041E0E930F407C9F737C03032A1F4AD
:100F7000213209F05AC08091E80082FFFCCFE2E004
:100F8000F1E08091F100819381E0E930F807C9F741
:100F90008BEF8093E80021C0323241F4213209F016
:100FA00044C0E09216020E94580417C03323C9F4CB
:100FB00029830E9458042981223851F40093E900C2
:100FC0009091EB0081E095FF80E01092E90001C074
:100FD00080E08093F1001092F1008EEF8093E800A2
:100FE00027C0313011F0333001F52230F1F4E11433
:100FF000F104D9F40F77802F81508430B0F48EEF54
:101000008093E8000093E900333079F089E1809320
:10101000EB0081E090E002C0880F991F0A95E2F78B
:101020008093EA001092EA0003C081E28093EB0013
:101030000F90CF91DF91FF91EF91BF91AF919F9171
:101040008F917F916F915F914F913F912F911F9160
:101050000F91FF90EF900F900FBE0F901F9018957B
:101060001F93CF93DF93EC01FE012196149111237E
:1010700049F01A3019F48DE00E94B604812F0E94C5
:10108000B604F2CFDF91CF911F9108958A3010F40A
:1010900090E301C097E3890F0E94B6040895CF93AF
:1010A000C82F82958F700E9446088C2F8F700E94E7
:1010B0004608CF910895CF93C82F892F0E944F08DB
:1010C0008C2F0E944F08CF9108950E944F080895D9
:1010D000EF92FF920F931F93DF93CF93CDB7DEB7BD
:1010E00027970FB6F894DEBF0FBECDBF8E010F5FFE
:1010F0001F4F27E0F80111922A95E9F7B8014AE05D
:1011000050E00E949E1088E0E82EF12CEC0EFD1EAF
:10111000F80181918F01882311F00E94B6040E1509
:101120001F05B1F727960FB6F894DEBF0FBECDBFEF
:10113000CF91DF911F910F91FF90EF900895EF9263
:10114000FF920F931F93DF93CF9300D000D00F92A5
:10115000CDB7DEB78E010F5F1F4F25E0F80111926A
:101160002A95E9F7B8014AE050E00E94181196E08C
:10117000E92EF12CEC0EFD1EF80181918F018823E0
:1011800011F00E94B6040E151F05B1F70F900F90D5
:101190000F900F900F90CF91DF911F910F91FF90C3
:1011A000EF900895EF92FF920F931F93DF93CF93E9
:1011B000CDB7DEB72B970FB6F894DEBF0FBECDBF0D
:1011C0008E010F5F1F4F2BE0F80111922A95E9F76E
:1011D000A8012AE030E00E94BF102CE0E22EF12CA2
:1011E000EC0EFD1EF80181918F01882311F00E9401
:1011F000B6040E151F05B1F72B960FB6F894DEBF97
:101200000FBECDBFCF91DF911F910F91FF90EF9057
:101210000895EF92FF920F931F93DF93CF93CDB773
:10122000DEB72A970FB6F894DEBF0FBECDBF8E0192
:101230000F5F1F4F2AE0F80111922A95E9F7A801E4
:101240002AE030E00E94F3103BE0E32EF12CEC0E9C
:10125000FD1EF80181918F01882311F00E94B604D0
:101260000E151F05B1F72A960FB6F894DEBF0FBE14
:10127000CDBFCF91DF911F910F91FF90EF90089517
:10128000EF92FF920F931F937B018C0120E030E0DF
:1012900040E05FE40E94BC0C87FD11C0C801B701AB
:1012A00020E030E040E05FE40E94E30A0E944C0D41
:1012B0009B01AC01205030404040504806C0C8015E
:1012C000B7010E944C0D9B01AC01B901CA011F91ED
:1012D0000F91FF90EF900895A0E0B0E0E2E7F9E011
:1012E0000C946B10FC01EA018081823008F438C153
:1012F000DB019C91923008F430C1843059F4943071
:1013000009F02EC1918111968C911197981709F0CF
:1013100021C126C1943009F420C19230B1F4823049
:1013200009F01EC1CA01AF0128E0DA010D90AD013C
:10133000DC010D92CD012150C1F7DB0111968C919A
:1013400011979181892389830AC1823009F405C1EB
:10135000C280D380DB0112966D907C90139724811C
:101360003581468157811496ED90FD900D911C9129
:101370001797C601861997095C0197FF04C0AA2434
:10138000BB24A81AB90AB0E2AB16B1040CF061C0D4
:10139000181619066CF5370148010A2C04C09694FA
:1013A0008794779467940A94D2F781E090E0A0E064
:1013B000B0E00A2C04C0880F991FAA1FBB1F0A9413
:1013C000D2F70197A109B1098E219F21A023B12352
:1013D000EE24FF248701E3940097A105B10519F4D9
:1013E000EE24FF248701E628F728082919293CC0A4
:1013F0000097D1F1CA0CDB1C39014A010A2C04C048
:1014000096948794779467940A94D2F781E090E059
:10141000A0E0B0E00A2C04C0880F991FAA1FBB1FD0
:101420000A94D2F70197A109B10982239323A42337
:10143000B52321E030E040E050E00097A105B10580
:1014400019F420E030E0A901262937294829592933
:101450000BC06C147D0424F4EE24FF24870104C027
:10146000630120E030E0A9018181FB0191818917AE
:1014700009F445C0882349F0D801C701821B930BAA
:10148000A40BB50B9C01AD0104C02E193F09400B04
:10149000510B57FD04C01982DB82CA820BC081E068
:1014A0008983DB82CA8250954095309521953F4FC4
:1014B0004F4F5F4F2C833D834E835F830DC0880F5A
:1014C000991FAA1FBB1F8C839D83AE83BF838A8114
:1014D0009B8101979B838A838C819D81AE81BF8193
:1014E0009C01AD0121503040404050402F3FEFEF74
:1014F0003E07EFEF4E07EFE35E0708F30BC089836B
:10150000DB82CA822E0D3F1D401F511F2C833D835D
:101510004E835F8383E088832C813D814E815F8190
:1015200057FF1DC0DA01C90181709070A070B070C2
:101530005695479537952795822B932BA42BB52B42
:101540008C839D83AE83BF838A819B8101969B831D
:101550008A8305C0E9E0F1E003C0FB0101C0FE01A0
:10156000CF01CDB7DEB7EEE00C948710A0E2B0E07B
:10157000ECEBFAE00C94731069837A838B839C8381
:101580002D833E834F83588789E0E82EF12CEC0EA3
:10159000FD1ECE010196B7010E943D0F8E010F5E28
:1015A0001F4FCE010596B8010E943D0FC701B8013B
:1015B000AE01475E5F4F0E946C090E94700EA096BC
:1015C000E6E00C948F10A0E2B0E0E9EEFAE00C94B3
:1015D000731069837A838B839C832D833E834F832F
:1015E00058878E01075F1F4FCE010196B8010E94F8
:1015F0003D0F91E1E92EF12CEC0EFD1ECE0105967A
:10160000B7010E943D0F8A8991E089278A8BC80122
:10161000B701AE01475E5F4F0E946C090E94700ED9
:10162000A096E6E00C948F10A0E2B0E0EAE1FBE0C7
:101630000C94671069837A838B839C832D833E830C
:101640004F835887CE010196BE01675F7F4F0E948E
:101650003D0FCE010596BE016F5E7F4F0E943D0F8C
:101660009985923078F089898230C0F0943019F4ED
:10167000823041F4CBC0843019F4923079F4C6C082
:10168000923051F481E02A859A89291709F480E083
:101690008A87CE010996BCC0823051F481E02A8548
:1016A0009A89291709F480E08A8BCE014196B0C04F
:1016B0006D847E848F849888ED88FE880F89188DCC
:1016C000E0E2F0E080E090E0DC01AA24BB246501C8
:1016D00020E030E0A901B3016170707061157105FF
:1016E000D1F02E0D3F1D401F511F15012601280E60
:1016F000391E4A1E5B1E81E090E0A0E0B0E02E158E
:101700003F054007510718F080E090E0DC01820DB2
:10171000931DA41DB51DAA0CBB1CCC1CDD1C17FF02
:1017200009C061E0262E312C412C512CA228B3286F
:10173000C428D528319749F0EE0CFF1C001F111F5B
:101740009694879477946794C6CF6B897C89EB8550
:10175000FC856E0F7F1F6E5F7F4F7C8F6B8F61E00C
:10176000EA857A89E71709F460E06A8F6B8D7C8DD2
:1017700010C0FC01E170F070309729F05695479544
:10178000379527955068B695A795979587956F5F7C
:101790007F4FB7FDEECF0CC0880F991FAA1FBB1F4C
:1017A00057FD8160220F331F441F551F6150704049
:1017B0008030E0E09E07E0E0AE07E0E4BE0760F3C3
:1017C0006B8F7C8F6FE7E62EF12C012D112DE82217
:1017D000F9220A231B2360E4E616F1040105110532
:1017E00061F487FD0AC0211531054105510529F035
:1017F000805C9F4FAF4FBF4F80788D8F9E8FAF8F94
:10180000B8A383E0898FCE01499602C089E091E0B8
:101810000E94700EA096E2E10C948310A8E1B0E063
:10182000E4E1FCE00C946F1069837A838B839C83E2
:101830002D833E834F8358878E01075F1F4FCE0154
:101840000196B8010E943D0F81E1E82EF12CEC0ECB
:10185000FD1ECE010596B7010E943D0F998592307D
:1018600008F483C08989823008F47BC02A853A89CC
:1018700023272A87943011F0923021F4981709F029
:101880006CC071C0843039F41D861E861F86188A8C
:101890001C861B866AC0823019F484E0898765C083
:1018A0008B859C852B893C89821B930B9C878B871E
:1018B0002D853E854F855889ED88FE880F89188DC6
:1018C0002E153F054007510738F4220F331F441FE0
:1018D000551F01979C878B876FE170E0A12CB12C7D
:1018E000C12CA0E4DA2E80E090E0DC012E153F054B
:1018F0004007510740F08A299B29AC29BD292E19A0
:101900003F09400B510BD694C794B794A794220F6C
:10191000331F441F551F6150704041F76FE7E62E9B
:10192000F12C012D112DE822F9220A231B2360E45A
:10193000E616F1040105110561F487FD0AC02115C1
:1019400031054105510529F0805C9F4FAF4FBF4FD6
:1019500080788D879E87AF87B88B8E01075F1F4F7A
:1019600004C0870102C009E011E0C8010E94700EA6
:101970006896EAE00C948B10A8E1B0E0E2ECFCE0A1
:101980000C94731069837A838B839C832D833E83AD
:101990004F8358878E01075F1F4FCE010196B80114
:1019A0000E943D0F81E1E82EF12CEC0EFD1ECE01D0
:1019B0000596B7010E943D0F8985823040F08989E4
:1019C000823028F0C801B7010E94A60F01C08FEF36
:1019D0006896E6E00C948F10A8E0B0E0E2EFFCE03F
:1019E0000C9473107B018C0183E08983D801C701BB
:1019F0008827B7FD83959927AA27BB27282F8A8395
:101A0000E114F1040105110519F482E0898337C05E
:101A10008EE190E09C838B83222389F080E0E8169E
:101A200080E0F80680E0080780E8180769F1109563
:101A30000095F094E094E11CF11C011D111DED8254
:101A4000FE820F831887C801B7010E94160E9C0101
:101A5000215030401216130694F4022E04C0EE0CEE
:101A6000FF1C001F111F0A94D2F7ED82FE820F8324
:101A700018878EE190E0821B930B9C838B83CE01B1
:101A800001960E94700E04C060E070E080E09FEC60
:101A90002896E6E00C948F10ACE0B0E0E2E5FDE0C3
:101AA0000C94771069837A838B839C83CE01019693
:101AB000BE016B5F7F4F0E943D0F8D81823081F1AF
:101AC000823070F1843021F48E81882369F10AC05C
:101AD0002F81388537FD24C06E812F3131053CF0D0
:101AE000662311F120E030E040E050E821C08EE1B3
:101AF00090E0821B930B29853A854B855C8504C059
:101B000056954795379527958A95D2F7662381F0A4
:101B100050954095309521953F4F4F4F5F4F08C0EE
:101B200020E030E0A90104C02FEF3FEF4FEF5FE767
:101B3000B901CA012C96E2E00C949310A8E0B0E041
:101B4000E4EAFDE00C9471107B018C011A826115AE
:101B500071058105910519F482E089835FC083E0F6
:101B600089838EE1C82ED12CDC82CB82ED82FE826D
:101B70000F831887C801B7010E94160EFC01319728
:101B8000F7FF3AC0AA27BB27AE1BBF0B21E030E00E
:101B900040E050E00A2E04C0220F331F441F551F9F
:101BA0000A94D2F721503040404050402E213F212E
:101BB0004023512361E070E080E090E02115310581
:101BC0004105510519F460E070E0CB0104C01695A1
:101BD0000795F794E794AA95D2F7E62AF72A082BF7
:101BE000192BED82FE820F8318878EE190E08E1B09
:101BF0009F0B9C838B8312C0309781F00E2E04C004
:101C0000EE0CFF1C001F111F0A94D2F7ED82FE821A
:101C10000F831887CE1ADF0ADC82CB82CE010196B1
:101C20000E94700E2896E8E00C948D10AF92BF923F
:101C3000CF92DF92EF92FF920F931F937B018C0163
:101C400080E0E81680E0F80681E0080780E01807E9
:101C500058F4EFEFEE16F1040105110509F090F4C8
:101C600080E090E0DC0117C0F0E0EF16F0E0FF0646
:101C7000F0E00F07F1E01F0750F480E190E0A0E0F2
:101C8000B0E009C088E090E0A0E0B0E004C088E1E6
:101C900090E0A0E0B0E020E230E040E050E0281B1F
:101CA000390B4A0B5B0B5701680104C0D694C794EB
:101CB000B794A7948A95D2F7D601C5018F5E9E4F3F
:101CC000FC018081281B310941095109C9011F917B
:101CD0000F91FF90EF90DF90CF90BF90AF9008955D
:101CE000EF92FF920F931F93CF93DF93FC01248118
:101CF00035814681578161818081823020F4406145
:101D0000EFEFF0E0A3C0843009F49BC0823009F407
:101D100092C0211531054105510509F48FC002809B
:101D2000F381E02D7FEFE238F7070CF05AC0C2E8EC
:101D3000DFEFCE1BDF0BCA31D1056CF579018A01CB
:101D40000C2E04C016950795F794E7940A94D2F7E1
:101D500081E090E0A0E0B0E00C2E04C0880F991F55
:101D6000AA1FBB1F0A94D2F70197A109B1098223C8
:101D70009323A423B52321E030E040E050E0009716
:101D8000A105B10519F420E030E0A9012E293F2971
:101D9000402B512B03C020E030E0A901DA01C9013A
:101DA0008F779070A070B07080349105A105B10557
:101DB00039F427FF09C0205C3F4F4F4F5F4F04C0ED
:101DC000215C3F4F4F4F5F4FE1E0F0E0203080E07B
:101DD000380780E0480780E4580728F5E0E0F0E0A5
:101DE00022C0E038F1056CF5E158FF4FDA01C90176
:101DF0008F779070A070B07080349105A105B10507
:101E000039F427FF09C0205C3F4F4F4F5F4F04C09C
:101E1000215C3F4F4F4F5F4F57FF05C05695479589
:101E200037952795319687E05695479537952795AD
:101E30008A95D1F70BC0E0E0F0E005C0E0E0F0E00B
:101E400005C0EFEFF0E020E030E0A9018E2F87958C
:101E500088278795942F9F77679566276795E695DE
:101E6000A92FA82BFE2FF62B622F732F8A2F9F2FBF
:101E7000CDB7DEB7E6E00C948F10DC01FB012C91AE
:101E800011963C91119712968C911297482F4F778B
:101E900050E0982F991F9927991F13966C911397CB
:101EA000862F880F892B90E0661F6627661F618347
:101EB000009739F5211531054105510511F482E0EE
:101EC00029C082E89FEF9383828367E0220F331F4C
:101ED000441F551F6A95D1F783E0808309C0220F04
:101EE000331F441F551F82819381019793838283FF
:101EF000203080E0380780E0480780E4580778F316
:101F000020C08F3F910579F4211531054105510518
:101F100019F484E08083089544FF03C081E0808346
:101F200010C010820EC08F5790409383828383E04D
:101F3000808387E0220F331F441F551F8A95D1F7F6
:101F4000506424833583468357830895FC01DB0165
:101F50009081923008F449C08C91823008F445C0D9
:101F6000943051F461818430B1F511962C91119720
:101F700030E0261B310941C0843021F0923041F419
:101F80008230B1F111968C9111978823A1F12DC067
:101F90006181823001F111968C9111976817D9F403
:101FA0002281338112968D919C911397821793070A
:101FB00094F028173907BCF0248135814681578178
:101FC00014968D919D910D90BC91A02D8217930731
:101FD000A407B50718F4662341F00DC02817390788
:101FE0004A075B0728F4662331F021E030E005C0A2
:101FF00020E030E002C02FEF3FEFC9010895629F5B
:10200000D001739FF001829FE00DF11D649FE00DF0
:10201000F11D929FF00D839FF00D749FF00D659F51
:10202000F00D9927729FB00DE11DF91F639FB00D50
:10203000E11DF91FBD01CF011124089597FB092E61
:1020400007260AD077FD04D02ED006D000201AF43F
:10205000709561957F4F0895F6F7909581959F4F04
:102060000895A1E21A2EAA1BBB1BFD010DC0AA1FD9
:10207000BB1FEE1FFF1FA217B307E407F50720F0F1
:10208000A21BB30BE40BF50B661F771F881F991F6C
:102090001A9469F760957095809590959B01AC01B5
:1020A000BD01CF010895AA1BBB1B51E107C0AA1FA8
:1020B000BB1FA617B70710F0A61BB70B881F991FE9
:1020C0005A95A9F780959095BC01CD0108952F925E
:1020D0003F924F925F926F927F928F929F92AF92B8
:1020E000BF92CF92DF92EF92FF920F931F93CF9305
:1020F000DF93CDB7DEB7CA1BDB0B0FB6F894DEBF9C
:102100000FBECDBF09942A88398848885F846E84C1
:102110007D848C849B84AA84B984C884DF80EE800B
:10212000FD800C811B81AA81B981CE0FD11D0FB614
:10213000F894DEBF0FBECDBFED010895FB019F01F6
:10214000E8944230C4F04532B4F44A3029F497FBA5
:102150001EF4909581959F4F642F77270E9453100E
:10216000805D8A330CF0895D8193CB010097A1F7E4
:1021700016F45DE251931082C9010C948C11FA019E
:10218000CF93FF93EF93223044F1253234F5C22FE1
:10219000E894CA3049F497FB3EF490958095709589
:1021A00061957F4F8F4F9F4F2C2F33274427552703
:1021B000FF93EF930E943110EF91FF91605D6A33BE
:1021C0000CF0695D6193B901CA01605070408040B4
:1021D000904051F716F4CDE2C19310828F919F91F8
:1021E000CF910C948C11FA01CF93FF93EF9322308F
:1021F000CCF02532BCF4C22F2C2F3327442755278F
:10220000FF93EF930E943110EF91FF91605D6A336D
:102210000CF0695D6193B901CA0160507040804063
:10222000904051F710828F919F91CF910C948C1117
:10223000FB019F01423074F0453264F4642F77272C
:102240000E945310805D8A330CF0895D8193CB012D
:102250000097A1F71082C9010C948C1103D0E3956B
:1022600028C0DEC03FD0E8F3E894E0E0BB279F57EA
:10227000F0F02AED3FE049EC06C0EE0FBB0F661F01
:10228000771F881F28F0B23A62077307840728F087
:10229000B25A620B730B840BE3959A9572F78038F0
:1022A00030F49A95BB0F661F771F881FD2F79048AE
:1022B000ABC0EF93E0FF06C0A2EA2AED3FE049EC95
:1022C0005FEB47D0CFD00F90039401FC9058EEE223
:1022D000F1E0A9C057FD9058440F551F59F05F3FDA
:1022E00071F04795880F97FB991F61F09F3F79F038
:1022F00087950895121613061406551FF2CF4695BA
:10230000F1DF08C0161617061806991FF1CF86953B
:102310007105610508940895DC01FC01672F719136
:102320007723E1F7329704C07C916D9370836291BB
:10233000AE17BF07C8F3089587D030F08CD020F0D7
:1023400031F49F3F11F41EF46BC00EF4E095E7FBEF
:1023500053C0E92FBFDF80F3BA1762077307840702
:10236000950718F071F49EF58EC00EF4E0950B2ED3
:10237000BA2FA02D0B01B90190010C01CA01A001D7
:102380001124FF27591B99F0593F50F4503E68F132
:102390001A16F040A22F232F342F4427585FF3CF73
:1023A000469537952795A795F0405395C9F77EF444
:1023B0001F16BA0B620B730B840BBAF09150A1F08D
:1023C000FF0FBB1F661F771F881FC2F70EC0BA0F13
:1023D000621F731F841F48F4879577956795B7959B
:1023E000F7959E3F08F0B3CF9395880F08F0992793
:1023F000EE0F97958795089597F99F6780E870E0AD
:1024000060E008959F3F31F0915020F487957795D3
:102410006795B795880F911D9695879597F90895BB
:102420009FEF80EC08959F938F937F936F93FF931B
:10243000EF939B01AC01F8D8EF91FF912BD02F9136
:102440003F914F915F91F0C800240A941616170629
:1024500018060906089500240A9412161306140695
:1024600005060895092E0394000C11F4882352F0F8
:10247000BB0F40F4BF2B11F460FF04C06F5F7F4FB0
:102480008F4F9F4F0895E894BB2766277727CB018E
:1024900097F90895DF93CF931F930F93FF92EF92D5
:1024A000DF927B018C01689405C0DA2EEF0121D008
:1024B000FE01E894A5912591359145915591AEF392
:1024C000EF0147DFFE019701A801DA9479F7DF9069
:1024D000EF90FF900F911F91CF91DF910895B4DF9E
:1024E00028F0B9DF18F0952309F086CF99CF112491
:1024F000CBCFF0DEA0F3959FD1F3950F50E0551FA1
:10250000629FF001729FBB27F00DB11D639FAA2748
:10251000F00DB11DAA1F649F6627B00DA11D661F97
:10252000829F2227B00DA11D621F739FB00DA11DB8
:10253000621F839FA00D611D221F749F3327A00D72
:10254000611D231F849F600D211D822F762F6A2F0E
:1025500011249F5750408AF0E1F088234AF0EE0F93
:10256000FF1FBB1F661F771F881F91505040A9F7A0
:102570009E3F510570F040CF87CF5F3FECF3983E10
:10258000DCF3869577956795B795F795E7959F5F07
:10259000C1F7FE2B880F911D9695879597F90895A1
:0425A000F894FFCFDD
:1025A400120200E10000000008000000000000002A
:1025B40000000102020303030304040404040404EA
:1025C40004050505050505050505050505050505B8
:1025D4000506060606060606060606060606060698
:1025E4000606060606060606060606060606060687
:1025F4000607070707070707070707070707070768
:102604000707070707070707070707070707070756
:102614000707070707070707070707070707070746
:102624000707070707070707070707070707070736
:102634000708080808080808080808080808080817
:102644000808080808080808080808080808080806
:1026540008080808080808080808080808080808F6
:1026640008080808080808080808080808080808E6
:1026740008080808080808080808080808080808D6
:1026840008080808080808080808080808080808C6
:1026940008080808080808080808080808080808B6
:1026A40008080808080808080808080808080808A6
:0226B40008001C
:00000001FF
